:100000000C943E000C945B000C945B000C948400F8
:100010000C945D000C945B000C945B000C945B00F2
:100020000C945B000C945B000C945B000C945B00E4
:100030000C945B000C945B000C945B000C945B00D4
:100040000C945B000C945B000C945B000C945B00C4
:100050000C945B000C945B000C945B000C945B00B4
:100060000C945B000C945B006E01710174017701CC
:100070007A017D01800183018601890111241FBE5F
:10008000CFEFD8E0DEBFCDBF11E0A0E0B1E0E8E205
:10009000F3E002C005900D92AA30B107D9F721E034
:1000A000AAE0B1E001C01D92A331B207E1F70E94BE
:1000B00034010C9492010C9400001F920F920FB621
:1000C0000F9211248F939F9396B190930D0180917D
:1000D0000F01811110C090FF10C0109211011092F9
:1000E000100195E09093080191E0909312018F5FC9
:1000F00080930F0102C010920F019F918F910F907A
:100100000FBE0F901F9018951F920F920FB60F926F
:1001100011242F933F934F935F936F937F938F930C
:100120009F9383B180930C01282F207130E0359587
:1001300027953595279535952795359527952093BE
:100140000B01807290E0959587959595879595958B
:1001500087959595879595958795582F80930A0152
:1001600040910F0141112BC070910101713071F468
:1001700021110CC060910E01613041F460911101B8
:100180006F5F609311014F5F40930F014091000139
:10019000413081F451110EC040910E01413051F4B3
:1001A000409110014F5F4093100140910F014F5F4C
:1001B00040930F01209301018093000102C010922F
:1001C0000F019F918F917F916F915F914F913F911F
:1001D0002F910F900FBE0F901F901895F8948FE0FD
:1001E00084B98FEF8AB91BB88EE187B9E8E6F0E0F1
:1001F0001082808183608083ECE6F0E08081816002
:100200008083EBE6F0E08081806380831092C10000
:100210007894089580911101853041F4809107010F
:1002200085B981E00E94650110920E018091100154
:10023000853051F480910701880F88B982E00E94CF
:10024000650110920E010895E0911101F0E0EE5F5A
:10025000FE4F808185B9E0911001F0E0EE5FFE4F26
:100260008081880F88B908950E94EE000E94620183
:100270001BB815B8809112018130E9F48091080112
:100280000E94650180910801811109C0109212013C
:1002900085E08093080181E080930E0103C08150C6
:1002A000809308012FEF83ED90E321508040904030
:1002B000E1F700C0000080910E018130D9F60E9464
:1002C0000A01D8CF8FEF8AB9089590E08A3091055E
:1002D00010F5FC01EC5CFF4F0C948C018FE38BB9A3
:1002E000089586E08BB908958BE58BB908958FE466
:1002F0008BB9089586E68BB908958DE68BB908957C
:100300008DE78BB9089587E08BB908958FE78BB996
:1003100008958FE68BB90895EE0FFF1F0590F491B5
:08032000E02D0994F894FFCFD1
:0A032800010100010204080F0500A6
:00000001FF
